:020000040800F2
:100000008809002065010008851E0008871E000879
:1000100000000000000000000000000000000000E0
:100020000000000000000000000000008B1E00081F
:1000300000000000000000008D1E00088F1E000858
:1000400077010008770100087701000877010008B0
:10005000770100087701000877010008971E000863
:100060007701000877010008E91600087701000809
:100070007701000877010008770100087701000880
:1000800077010008770100080000000077010008F0
:100090007701000877010008770100087701000860
:1000A000770100087701000877010008E51D0008C6
:1000B0007701000800000000770100080000000040
:1000C00000F002F800F03EF80CA030C80838241800
:1000D0002D18A246671EAB4654465D46AC4201D180
:1000E00000F030F87E460F3E0FCCB6460126334274
:1000F00000D0FB1AA246AB4633431847E420000069
:1001000004210000103A02D378C878C1FAD8520707
:1001100001D330C830C101D504680C6070470000BD
:100120000023002400250026103A01D378C1FBD813
:10013000520700D330C100D50B6070471FB51FBDFB
:1001400010B510BD02F008F81146FFF7F7FF01F0F7
:10015000E1F802F020F803B4FFF7F2FF03BC02F06D
:1001600027F800000748804707480047FEE7FEE7FA
:10017000FEE7FEE7FEE7FEE704480549054A064BB1
:100180007047000007150008C10000088803002020
:100190008809002088050020880500200168584A49
:1001A000114001600021016041608160C1605549DA
:1001B000884208D15349083949680F221143514AEE
:1001C000083A516035E04F491431884208D14D4911
:1001D00008394968F02211434A4A083A516028E038
:1001E00048492831884209D14649083949680F22CF
:1001F00012021143434A083A51601AE041493C3126
:10020000884209D13F49083949680F221203114336
:100210003C4A083A51600CE03A495031884208D1D2
:100220003849083949680F2212041143354A083AFF
:100230005160704710B500220268334B1A400C6AB7
:100240008B6823430C6923434C6923438C69234304
:10025000CC6923434C6A23438C6A23431A430260CC
:10026000CB6843600B6883604B68C36010BD00219E
:10027000016041608160C160016141618161C16172
:100280000162416281627047002904D00268012343
:100290001A43026003E00268194B1A40026070477B
:1002A000416070470146486880B27047002A03D019
:1002B00003680B43036002E003688B4303607047ED
:1002C000014600200F4A083A12680A40002A01D06D
:1002D000012000E0002070470A4908394860704753
:1002E00001460020074A083A12680A40002A01D055
:1002F000012000E00020704702490839486070473B
:10030000FEFF0000080002400F80FFFF3E483F490B
:100310000860002048608860C8603D4848617047B8
:1003200000213A498279002A35D00A4612680368CA
:100330009A430B461A600A46526803689A430B4672
:100340005A60027951180A6803681A430A602F4AF2
:10035000926803689A432D4B9A601A46D2680368E4
:100360009A432A4BDA604279102A0CD11A469268D5
:1003700003681A43254B9A601A46D26803681A43E9
:10038000224BDA600DE02149427951180A6803686E
:100390001A430A6005E0027951180A6803689A4313
:1003A0000A6070470021016001710C214171002138
:1003B00081717047154909690143144A11617047F9
:1003C00001460020114A52690A40002A01D001204A
:1003D00000E0002070470D49486170470146002049
:1003E00000220A4B1B680B401A46084B5B690B4006
:1003F000002B03D0002A01D0012000E0002070472C
:1004000002494861704700000000940F0004014059
:10041000FFFF6B0010B504460920C006844209D1D5
:100420000121480400F0EFFB00210120400400F00E
:10043000EAFB30E06E48844208D10121000200F05E
:10044000E2FB0021200200F0DEFB24E06948844248
:1004500008D10121000200F0D6FB0021200200F0AB
:10046000D2FB18E06448844209D10121080500F05C
:10047000CAFB00210120000500F0C5FB0BE05F482E
:10048000844208D10121880500F0BDFB0021012034
:10049000800500F0B8FB10BDF0B50A46002100232E
:1004A000002400BF3DE001258D402B4615681D400E
:1004B0002C469C4234D11579012D02D01579022D9C
:1004C00016D185684F000326BE40B5438560557937
:1004D0004E00B540866835438560858801268E408C
:1004E000B5438580858896798E40B6B23543858040
:1004F00005684F000326BE40B543056015794E00E0
:10050000B540066835430560C5684F000326BE4008
:10051000B543C560D5794E00B540C6683543C56062
:10052000491C1029BFD3F0BD35490160002101717C
:100530000221417100218171C171704708B501220A
:1005400012040092009A0A430092009AC261C161AB
:10055000009AC261C2690092C269009208BD024657
:100560000020138A0B40002B01D0012000E0002066
:1005700070470146088A704702460020938A0B4064
:10058000002B01D0012000E0002070470146888A3E
:1005900070478161704701857047002A01D08161F1
:1005A00000E00185704781827047F0B50023002488
:1005B0004D07EE0E1546B5402B46CD10AE00054654
:1005C0002035AD594E07F70E0F26BE40B543CE106D
:1005D000B60007462037BD51CD10AE003D46AD599F
:1005E0001D432C46CD10AD003E467451F0BD0000B9
:1005F0000004004800080048000C004800140048AF
:10060000FFFF000000218278002A27D0274A032319
:100610001B02D21803789B109B00D15802789207D6
:10062000D30EFF229A400B46934319464278920715
:10063000120E03789B07DB0E9A4011431B4A0323DB
:100640001B02D21803789B109B00D1500278D3066E
:10065000DB0E01229A40154B1A6007E00278D306A0
:10066000DB0E01229A40114B80331A60704700293B
:1006700005D00F4A126902430D4B1A6104E00C4A7F
:10068000126982430A4B1A617047042806D109494E
:10069000096904221143074A116105E00549096906
:1006A00004229143034A11617047000000E100E019
:1006B00000ED00E000E000E0FD4800680121084393
:1006C000FB49086008464068FA490840F849486014
:1006D00008460068F8490840F5490860084600687F
:1006E000012189048843F2490860084640683F2197
:1006F00009048843EE4948600846C06A00090001C1
:10070000C8620846006BFF2154318843E8490863FA
:100710000846406B400840004863002088607047EE
:100720000021E34A917011468870704710B5024667
:100730000021002300205111002902D1DC4C236844
:100740000BE0012902D1DA4C236A06E0022902D12A
:10075000D74C636A01E0D64C636BD106C90E012405
:100760008C401C40002C01D0012000E0002010BD76
:1007700038B5002000900024002500BF1120FFF7AD
:10078000D5FF05460098401C0090052109030098FC
:10079000884201D0002DF1D01120FFF7C7FF0028BB
:1007A00001D0012400E00024204638BD014600208D
:1007B000BF4A1068F82302469A431046CA00104305
:1007C000BB4A10607047002806D0B9490968012269
:1007D0001143B74A116005E0B54909684908490065
:1007E000B34A1160704701460020B14A506BF823AC
:1007F00002469A431046CA001043AD4A5063704700
:10080000002806D0AA49496B01221143A84A516326
:1008100005E0A749496B49084900A54A516370475B
:10082000002806D0A249496B04229143A04A516393
:1008300005E09F49496B042211439D4A516370476B
:100840009B49096A49084900994A11621146096A97
:1008500004229143964A11621146096A01431162CA
:1008600070479349096A18229143914A11621146CF
:10087000096A014311627047002806D08C49496A11
:10088000012211438A4A516205E08949496A4908AF
:100890004900874A51627047854A52683D231B04CC
:1008A0009A43834B5A601A46526803460B431A43D5
:1008B0007F4B5A607047002807D07D4909680122A4
:1008C000120611437A4A116006E07949096801224B
:1008D00012069143764A1160704701460020744A1F
:1008E000D06A0009000102460A431046704AD062ED
:1008F0007047002807D06E4909680122D2041143CD
:100900006B4A116006E06A4909680122D2049143EA
:10091000674A116070476649C871704701460020F8
:10092000634A50688008800002460A431046604AC5
:10093000506070475E4840680C210840704701468F
:1009400000205B4A5068F02302469A431046024654
:100950000A431046564A5060704701460020544AE8
:10096000506807231B0202469A43104602460A4378
:1009700010464F4A506070474D4949680122920322
:1009800091434B4A51601146496882B21143484A2B
:1009900051601146096B92159143454A1163114606
:1009A000096B020C1143424A116370474049096BBD
:1009B000402291433E4A11631146096B0143116382
:1009C00070473B49096B10229143394A1163114624
:1009D000096B0143116370473549096B8908890028
:1009E000334A11631146096B014311637047FEB529
:1009F00004460025002600200190009000272C4886
:100A000040680C2108400546002D04D0042D05D077
:100A1000082D28D105E02948206027E027482060DC
:100A200024E0234840680F218904084006462048F6
:100A300040680121090408400190B00C861C01980F
:100A4000002803D11E48704320600BE01848C06A9C
:100A50000007000F401C00901848009901F0CCFAE4
:100A60007043206002E01548206000BF00BF1048BE
:100A70004068F021084005462D091248475D20686E
:100A8000F84060600A4840680721090208400546AE
:100A90002D0A0C48475D6068F840A0600448006B70
:100AA000FF2101310840884210D00748E0601BE078
:100AB000001002400CB8FFF8FFFFF6FE00127A00AB
:100AC00000093D0000000020809FD5007548406867
:100AD000012189030840884203D0A0684008E060F3
:100AE00002E0A0688008E0606E48006B402108408A
:100AF000402802D06C48206102E00120C003206140
:100B00006848006B10210840102802D067486061D7
:100B100001E0206860616348006B8007800F002857
:100B200002D1A068A06119E05E48006B8007800FC9
:100B3000012802D12068A06110E05A48006B8007AC
:100B4000800F022802D18003A06107E05548006BA6
:100B50008007800F032801D15448A061FEBD514990
:100B6000096A01434F4A11627047002807D04D4976
:100B7000096A0122D20311434A4A116206E0494937
:100B8000096A0122D2039143464A11627047002844
:100B900007D04449096A012212041143414A1162F3
:100BA00006E04049096A0122120491433D4A11625C
:100BB0007047002905D03B4A52690243394B5A61BC
:100BC00004E0384A52698243364B5A617047002923
:100BD00005D0344A92690243324B9A6104E0314AAB
:100BE000926982432F4B9A617047002905D02D4AA4
:100BF000D26902432B4BDA6104E02A4AD26982436C
:100C0000284BDA617047002905D0264A926A0243D0
:100C1000244B9A6204E0234A926A8243214B9A62EF
:100C20007047002905D01F4AD26802431D4BDA6085
:100C300004E01C4AD26882431A4BDA6070470029EC
:100C400005D0184A12690243164B1A6104E0154A8E
:100C500012698243134B1A617047002905D0114A6B
:100C6000527A02430F4B5A7204E00E4A527A824380
:100C70000C4B5A7270470B48406A01210906084321
:100C800008494862704701460020064A92680A40B7
:100C9000002A01D0012000E000207047014988723D
:100CA00070470000001002401280000000127A001D
:100CB0003A4800688007800F384908600020886043
:100CC00000213648C160016141618069FF21013125
:100CD0000843324988617047014600202F4A106856
:100CE0008008800002460A4310462C4A1060704774
:100CF000002905D0294A12680243284B1A6004E0F3
:100D0000264A12688243254B1A607047002905D095
:100D1000224A12680243214B1A6004E01F4A1268FB
:100D200082431E4B1A60704730B500228B071C0FA0
:100D30000F23A3401A46194B08338C10A4001B59EB
:100D40009343164C08348D10AD00635123468C102C
:100D5000A4001B598C07250F0446AC4023430F4CBD
:100D600008348D10AD00635130BD0C4989690143D1
:100D70000A4A9161704701460020084A9269FF23A0
:100D800001331A40002A01D0012000E00020704702
:100D9000024989690143014A91617047000001409D
:100DA00010B50446F748844209D101218803FFF7B2
:100DB00038FF002101208003FFF733FF0BE0F248EA
:100DC000844208D101214804FFF739FF00210120A6
:100DD0004004FFF734FF10BDF0B589B005460E465C
:100DE00000240020089000BF00BF28684008400091
:100DF00028606C6803210903204688430446B068D4
:100E000004436C602C68E1480440F1687068084352
:100E10003169084304432C60AC6803210902204671
:100E20008843044670690443AC606846FFF7DFFD01
:100E3000D448854202D10698089001E002980890B3
:100E400028680121C9030840002809D032685100F0
:100E50001923089A5A43104601F0CEF8074608E0D5
:100E6000326891001923089A5A43104601F0C4F8D9
:100E700007466421384601F0BFF8040120096421C7
:100E80004843381A079028680121C9030840002800
:100E90000AD00799C90008463230642101F0ACF845
:100EA0004007400F044309E0079909010846323022
:100EB000642101F0A1F80007000F0443AC8109B0E0
:100EC000F0BD4B21C9010160002141608160C1601A
:100ED0000C21016100214161704710B50022426878
:100EE0000F2424021346A3431A464C680B6823437D
:100EF0008C682343CC6823431A43426010BD002111
:100F0000016041608160C1607047002904D00268BF
:100F100001231A43026003E0026852085200026093
:100F20007047002A03D003680B43036002E00368A4
:100F30008B4303607047002905D002680123DB035F
:100F40001A43026004E002680123DB039A43026053
:100F50007047002905D082680123DB021A438260B2
:100F600004E082680123DB029A4382607047002913
:100F700005D042680123DB041A43426004E0426862
:100F80000123DB049A4342607047002905D0426880
:100F900001239B041A43426004E0426801239B043E
:100FA0009A4342607047002A03D043680B43436072
:100FB00002E043688B4343607047002905D04268D4
:100FC0000123DB031A43426004E042680123DB0390
:100FD0009A4342607047002905D042680123DB052F
:100FE0001A43426004E042680123DB059A434260F1
:100FF00070474269120E1206426142690A43426119
:101000007047028AFF231B021A400282028A0A43A7
:1010100002827047002904D0026802231A4302604A
:1010200003E0026802239A43026070478268032348
:101030001B059A43826082680A43826070470029D8
:1010400005D0426801231B051A43426004E0426850
:1010500001231B059A4342607047426803235B05E6
:101060009A43426042680A4342607047C169012264
:10107000D2039143C1617047CA05D20D0285704702
:101080000146888CC005C00D704742681202120AE2
:10109000426042680B061A4342607047002905D03F
:1010A000026801235B031A43026004E00268012323
:1010B0005B039A430260704702680123DB029A4394
:1010C000026002680A4302607047426810239A4334
:1010D000426042680A4342607047426820239A4354
:1010E000426042680A4342607047002905D0426866
:1010F00001239B031A43426004E0426801239B03DF
:101100009A4342607047002904D0826808231A433A
:10111000826003E0826808239A4382607047028AF3
:10112000D2B20282028A0B021A430282704700295D
:1011300004D0826820231A43826003E0826820235F
:101140009A4382607047002904D0826810231A43B2
:10115000826003E0826810239A438260704782684D
:1011600007235B049A43826082684B041A438260BF
:10117000704742691202120A426142690B061A4321
:10118000426170470038014000440040F3E9FFFF2E
:10119000826804239A43826082680A4382607047AF
:1011A000002904D0826802231A43826003E0826827
:1011B00002239A4382607047002905D08268012388
:1011C0009B031A43826004E0826801239B039A43D5
:1011D0008260704782680123DB039A4382608268E1
:1011E0000A438260704702681F235B059A430260CE
:1011F00002684B051A430260704702681F231B04F4
:101200009A43026002680B041A4302607047002A86
:1012100003D083680B43836002E083688B43836061
:101220007047826801235B039A43826082680A43A5
:1012300082607047F8B5034600240026009600251A
:10124000002018460E04340ECEB200960127009EF0
:10125000B7403D46022C01D1001D02E0032C00D115
:101260000830002A03D006682E43066002E00668B4
:10127000AE430660F8BD002A03D0038B0B43038303
:1012800002E0038B8B4303837047826801231B03B7
:101290009A43826082680A43826070470246002057
:1012A000D3690B40002B01D0012000E000207047E3
:1012B0000162704770B502460B46002400210025EC
:1012C00000201E04350ED9B201268E403146012D74
:1012D00002D11668314006E0022D02D15668314035
:1012E00001E0966831401C0C0126A6403446D669C0
:1012F0003440002903D0002C01D0012000E0002060
:1013000070BD10B5002300220B0C01249C40224626
:10131000026210BD0024002500205649087000F02C
:10132000FDFA00F0A4FA4B20400200F0FFFC00F0B0
:101330007FF900F076FA00F031FB05E0FF202D3058
:1013400000F016FB00F024FB4B4800780228F5D093
:101350008EE049480078002831D13C2000F008FB9D
:1013600000F077FA45480078002801D100F00AFB28
:101370004348008800280FDD08210920C006FFF738
:101380000AF904210920C006FFF705F93C48008846
:10139000401E3B4908800CE00020394908800821A4
:1013A0000920C006FFF7F5F804210920C006FFF761
:1013B000F0F83C2000F0DCFA00F052FA14E02E487D
:1013C0000078012803D100202D4908800CE02A482C
:1013D0000078032808D129480078002801D100F0BE
:1013E00076FB642000F0C4FA20210920C006FFF734
:1013F000B6F8012814D1002D12D1002401E0601CA0
:1014000084B220488442FADB20210920C006FFF77D
:10141000A6F801282CD1032017490870012527E0E0
:1014200020210920C006FFF79AF8002820D1012DBD
:101430001ED1002401E0601C84B212488442FADB11
:1014400020210920C006FFF78AF8002810D10821C2
:101450000920C006FFF79DF804210920C006FFF708
:1014600098F80120044908700025002001490870FF
:101470006FE7000090000020910000202400002071
:101480008A000020307500000CB50020019000900B
:1014900011205F4908605F4840685E49486008461F
:1014A00040684860084640683F210904884359491C
:1014B0004860084640680521C9040843554948600A
:1014C000084600680121090608435249086000BF28
:1014D000504800680121490608400028F8D04D48CE
:1014E0004068800880004B494860084640680221F7
:1014F00008434849486000BF464840680C210840FE
:101500000828F9D10CBD10B54248006801210843F4
:1015100040490860084640683F4908403D494860E6
:10152000084600683D4908403A4908600846006896
:1015300001218904884337490860084640683F21F3
:1015400009048843334948600846C06A000900011D
:10155000C8620846006BFF21543188432D49086357
:101560000846406B40084000486300208860FFF751
:101570008BFF10BDF8B50025002400260027254864
:1015800040680C2108400546002D04D0042D06D0EB
:10159000082D2AD107E022482249086029E0204886
:1015A0002049086025E01B4840680F218904084055
:1015B0000446184840680121090408400646A00C6A
:1015C000841C002E04D118486043164908600BE0C3
:1015D0001048C06A0007000F471C3946104800F049
:1015E0000BFD60430F49086003E00D480D4908609A
:1015F00000BF00BF07484068F021084000090B49C0
:101600000D5C08480068E84006490860F8BD000025
:1016100000200240001002400CB8FFF8FFFFF6FE69
:1016200000127A001000002000093D001400002084
:1016300000B58DB001210846FFF7BBFA4748FEF719
:10164000ADFDFF20F5300590002008900990069030
:101650008020079000200A900C90414803900020C1
:101660000490012000030B903E48029002A93B48E1
:10167000FEF7E0FD39481438FEF790FD6420059030
:1016800000200890099006908020079000200A9082
:101690000C90354803901020049000200B903148A6
:1016A000001D029002A92D481438FEF7C3FD012247
:1016B00002212A481438FEF7F9FD012208212748A3
:1016C0001438FEF7F3FD002124481438FEF7DCFD42
:1016D0000A2168460171022141710121817101A82D
:1016E000FEF790FF0DB000BD10B52020FEF7F8FD0D
:1016F000002804D18020FEF7F3FD00280DD0202023
:10170000FEF7FAFD8020FEF7F7FD0021134814389C
:10171000FEF7BAFD00201549087010BD70B50546EA
:101720000E46002404E0285D0F490855601CC4B231
:10173000B442F8DB01200D49087000210748143835
:10174000FEF7A2FD314605481438FEF7A9FD012138
:1017500002481438FEF798FD70BD000030000240CA
:10176000A000002024380140940200202400002022
:10177000FA4909884143491EF94A516101219161A1
:101780001146096901221143F54A116103E0F44948
:101790000969F44A1160F2490969012212041140F1
:1017A0000029F4D0EE49096949084900EC4A116161
:1017B0007047EB49096904229143E94A11611146D6
:1017C000096902229143E64A1161C217520F1218A9
:1017D0005205120EE44B1A70194609787D22D20088
:1017E0005143DE4A11807047DF4909784143491E61
:1017F000DB4A5161012191611146096901221143BE
:10180000D74A116100BFD64909690122120411406B
:101810000029F8D0D249096949084900D04A116124
:1018200070471CB501214804FFF7C3F91020009050
:1018300001216846417101710021817169460920C9
:10184000C006FEF729FE10210920C006FEF7A1FE02
:101850001CBD10B510210920C006FEF79CFE10BD6E
:1018600010B510210920C006FEF793FE10BD1CB56F
:1018700001214804FFF79DF90820009001216846E6
:10188000417101710021817169460920C006FEF78E
:1018900003FE08210920C006FEF77BFE042000900D
:1018A0000121684641710171002181716946092059
:1018B000C006FEF7F1FD04210920C006FEF769FE0F
:1018C0001CBD002027E000220C214143A74B5A54A5
:1018D0000C214143C9184A700C214143C9188A7030
:1018E0000C214143C918CA700C214143C9180A711F
:1018F000032809D0411C0C2251431A468A180C2196
:101900004143C9188A6005E000220C214143974BEE
:10191000C9188A60401C0428D5D3704710B57D21B2
:10192000C9009348006800F067FB0446601E9149B7
:10193000884201D901200CE0601E894948610321D9
:10194000081F00F0A8F90020854988610720086178
:101950000020002801D000BFFEE710BD86480068C7
:10196000002804D084480068401E834908607047FE
:1019700001B581490098086000BF7F4800680028D1
:10198000FBD108BD10B516217C48FFF7C7FE10BD7E
:1019900010B510217A48FFF7C1FE10BD00B585B023
:1019A00001214804FFF705F901210846FFF70FF967
:1019B000202003900021684601740221C17403A90C
:1019C0000920C006FEF768FD8020039000216846CC
:1019D00001740221C17403A90920C006FEF75CFD51
:1019E00007210020FFF7A0F9802001900021684620
:1019F0000172082141720121817201A8FEF790FC59
:101A0000402003900021684601740221C17403A99B
:101A10000920C006FEF740FD06210020FFF784F9EB
:101A20004020019000216846017208214172012185
:101A3000817201A8FEF774FC07216846017000213D
:101A4000417001218170FEF7DDFD05B000BD70B56C
:101A50000246002018E003130405200C1478E51753
:101A60002D0F2D192D115D406D00464E755B6840A0
:101A700003130405200C14782407240F5C40640031
:101A800035462C5B6040521C0C464D1EA9B2002C02
:101A9000E1D170BD70B5044600253B480078844212
:101AA00003DB3A480078844200DD70BD3848047496
:101AB00005210C30FFF7CBFF054628123449887208
:101AC000CD7211213248FFF729FE00BFEDE710B5B6
:101AD00010213048FFF722FE10BDFEB504460D462A
:101AE00000270026002001900090102D00DAFEBD96
:101AF0000421A01DFFF7ABFF074638122179884269
:101B00007DD1F8B261798842FAD1607B062814D180
:101B1000102D00D0EBE7042120460C30FFF797FF93
:101B200007463812A17A884207D1F8B2E17A884292
:101B300003D114211848FFF7F1FD607B08283FD13D
:101B4000132D3DDDA07C142148430930A84237DC29
:101B500019260020114908702DE0000084000020A3
:101B600000E000E09400002086000020F802002041
:101B700010000020FFFFFF00980000203C00002024
:101B800063000020BE2100088E0000208D00002090
:101B90005200002073000020280000209C0000203C
:101BA0002320584908803046143086B256480078C1
:101BB000401C55490870A07C534909788842EFDCE5
:101BC000607B072833D1132D31DDA07C14214843DD
:101BD0000930A8422BDC192600204B49087021E06F
:101BE0004A48007800280BD1A05D002803D0701C63
:101BF000205C00280ED11A20454908800AE048E000
:101C0000A05D002803D1701C205C002802D0272092
:101C10003F4908803046143086B23B480078401C6B
:101C200039490870A07C384909788842D8DC607B43
:101C300052281DD1207C00281AD136490870FFF7A0
:101C400008FE002001900DE00020009003E00098C5
:101C5000401C80B200900098C828F8DB0198401C16
:101C600080B201902C4901988842EDDBFFF7F8FD26
:101C7000607B612805D1207C284908700120284913
:101C80000870607B032804D1207C002801D12449FE
:101C9000087000BF2BE710B5002819DA214A0307A6
:101CA0001B0F083B9B089B00D2588307DC0EFF23C9
:101CB000A3409A438B071B0E8407E40EA3401A43EC
:101CC000184B0407240F083CA408A4001A5118E07C
:101CD000154A03231B02D21883089B00D25883079E
:101CE000DC0EFF23A3409A438B071B0E8407E40EF0
:101CF000A3401A430C4B032424021B198408A4009C
:101D00001A5110BD880000209C0000209200002085
:101D10008A00002090000020DC0500008C000020DC
:101D2000910000201CED00E000E100E010B58AB059
:101D3000044601214804FEF73CFF01218803FEF719
:101D400046FF01220921C806FEF72FFC01220A21C5
:101D50000920C006FEF729FC03204002089002215A
:101D600008A8017103214171002181710121C17114
:101D700008A90920C006FEF78FFB029400200390FB
:101D80000490059007900C20069002A93548FFF7B3
:101D900023F8002234493348FFF74CFA0022334934
:101DA0003048FFF747FA012231492E48FFF742FA3F
:101DB000012240212B48FFF72AFA012280212948DD
:101DC000FFF725FA01212748FFF79FF81B216846F6
:101DD0000171022141710121817101A8FEF712FCFC
:101DE0000AB010BD10B522491E48FFF763FA00285B
:101DF00025D000211F48FEF747FA1E48FEF752FA89
:101E0000FF21F531081A1C4908800846008800287F
:101E100004DD084601781948FFF75FFE0F20000235
:101E2000FEF75AFAFF20F530124930394863012194
:101E30001048FEF729FA0E490A48FFF762FA1049DE
:101E40000848FFF737FA002803D00D490548FFF787
:101E500058FA05490348FFF754FA05490148FFF7C6
:101E600050FA10BD003801400601060005010500CA
:101E700004010400300002409E000020A000002069
:101E800008030300704700BFFEE77047704710B5B6
:101E9000FFF764FD10BD70B5002400258020FEF71B
:101EA0009DFA002847D04B480078012840D14A4885
:101EB000007800283CD100BF01E0601C84B2474894
:101EC0008442FADB80210920C006FEF748FB012886
:101ED0002ED14348007843490978401A424909788D
:101EE000884207DB3E4800783E490978401A3C4961
:101EF000087003E03C480078394908703B48007896
:101F0000002815D1002409E0002501E0681C85B2F5
:101F1000FF202D308542F9DB601C84B234488442B6
:101F2000F2DB2F480078FFF7B5FD01202A49087041
:101F30008020FEF765FA4020FEF750FA002847D0CF
:101F400024480078012840D12348007800283CD15B
:101F5000002401E0601C84B220488442FADB402166
:101F60000920C006FEF7FBFA01282ED11C48007894
:101F70001C49097840181F490978884207DC18482D
:101F800000781849097840181549087003E0194885
:101F900000781349087015480078002815D10024EE
:101FA00009E0002501E0681C85B2FF202D30854244
:101FB000F9DB601C84B20E488442F2DB08480078EA
:101FC000FFF768FD0120044908704020FEF718FA69
:101FD00070BD00009100002090000020409C000097
:101FE0008C0000208F0000208E00002024000020A4
:101FF000102700008D000020002203098B422CD303
:10200000030A8B4211D300239C464EE003460B4348
:102010003CD4002243088B4231D303098B421CD3AA
:10202000030A8B4201D394463FE0C3098B4201D39C
:10203000CB01C01A524183098B4201D38B01C01AD4
:10204000524143098B4201D34B01C01A524103094B
:102050008B4201D30B01C01A5241C3088B4201D3FA
:10206000CB00C01A524183088B4201D38B00C01AA7
:10207000524143088B4201D34B00C01A5241411ACE
:1020800000D201465241104670475DE0CA0F00D0B1
:102090004942031000D34042534000229C460309AA
:1020A0008B422DD3030A8B4212D3FC22890112BA30
:1020B000030A8B420CD3890192118B4208D3890108
:1020C00092118B4204D389013AD0921100E0890920
:1020D000C3098B4201D3CB01C01A524183098B4201
:1020E00001D38B01C01A524143098B4201D34B01EA
:1020F000C01A524103098B4201D30B01C01A52414D
:10210000C3088B4201D3CB00C01A524183088B42D3
:1021100001D38B00C01A5241D9D243088B4201D35C
:102120004B00C01A5241411A00D201466346524147
:102130005B10104601D34042002B00D54942704746
:1021400063465B1000D3404201B50020C046C04644
:1021500002BD704770477047754600F025F8AE46DF
:10216000050069465346C008C000854618B020B532
:10217000FEF702F860BC00274908B6460026C0C535
:10218000C0C5C0C5C0C5C0C5C0C5C0C5C0C5403D2F
:1021900049008D46704710B50446C046C0462046EB
:1021A000FDF7D9FF10BD000000487047280300204C
:1021B00001491820ABBEFEE7260002007047000070
:1021C0002110422063308440A550C660E77008812A
:1021D00029914AA16BB18CC1ADD1CEE1EFF10000E4
:1021E0000022000800000020A000000004010008F8
:1021F000A0220008A0000020E8080000200100083C
:10220000000000000102030401020304060708099C
:10221000006CDC020000000000000000010203046A
:102220000607080900000000FFFFFFFF0A3AC1028D
:10223000000A3BE34006003856DD096CFFFFFFFF54
:102240006AFCC102000CD37440070037000156FF3E
:102250002659FFFFFFFFDB97C1020007FFFF405237
:102260000037FFFFFFFFFFCBB6C1020006847340BB
:10227000610037FFFFFFFFCBB6C102000671784057
:10228000030037000000000000000000001F0001F4
:10229000000200000000000000000000000000003C
:04000005080000C12E
:00000001FF
